{
  "contractName": "TimelessNFT",
  "abi": [
    {
      "inputs": [
        {
          "internalType": "string",
          "name": "_name",
          "type": "string"
        },
        {
          "internalType": "string",
          "name": "_symbol",
          "type": "string"
        },
        {
          "internalType": "uint256",
          "name": "_royalityFee",
          "type": "uint256"
        },
        {
          "internalType": "address",
          "name": "_artist",
          "type": "address"
        }
      ],
      "stateMutability": "nonpayable",
      "type": "constructor"
    },
    {
      "anonymous": false,
      "inputs": [
        {
          "indexed": true,
          "internalType": "address",
          "name": "owner",
          "type": "address"
        },
        {
          "indexed": true,
          "internalType": "address",
          "name": "approved",
          "type": "address"
        },
        {
          "indexed": true,
          "internalType": "uint256",
          "name": "tokenId",
          "type": "uint256"
        }
      ],
      "name": "Approval",
      "type": "event"
    },
    {
      "anonymous": false,
      "inputs": [
        {
          "indexed": true,
          "internalType": "address",
          "name": "owner",
          "type": "address"
        },
        {
          "indexed": true,
          "internalType": "address",
          "name": "operator",
          "type": "address"
        },
        {
          "indexed": false,
          "internalType": "bool",
          "name": "approved",
          "type": "bool"
        }
      ],
      "name": "ApprovalForAll",
      "type": "event"
    },
    {
      "anonymous": false,
      "inputs": [
        {
          "indexed": true,
          "internalType": "address",
          "name": "previousOwner",
          "type": "address"
        },
        {
          "indexed": true,
          "internalType": "address",
          "name": "newOwner",
          "type": "address"
        }
      ],
      "name": "OwnershipTransferred",
      "type": "event"
    },
    {
      "anonymous": false,
      "inputs": [
        {
          "indexed": false,
          "internalType": "uint256",
          "name": "id",
          "type": "uint256"
        },
        {
          "indexed": true,
          "internalType": "address",
          "name": "owner",
          "type": "address"
        },
        {
          "indexed": false,
          "internalType": "uint256",
          "name": "cost",
          "type": "uint256"
        },
        {
          "indexed": false,
          "internalType": "string",
          "name": "metadataURI",
          "type": "string"
        },
        {
          "indexed": false,
          "internalType": "uint256",
          "name": "timestamp",
          "type": "uint256"
        }
      ],
      "name": "Sale",
      "type": "event"
    },
    {
      "anonymous": false,
      "inputs": [
        {
          "indexed": true,
          "internalType": "address",
          "name": "from",
          "type": "address"
        },
        {
          "indexed": true,
          "internalType": "address",
          "name": "to",
          "type": "address"
        },
        {
          "indexed": true,
          "internalType": "uint256",
          "name": "tokenId",
          "type": "uint256"
        }
      ],
      "name": "Transfer",
      "type": "event"
    },
    {
      "inputs": [
        {
          "internalType": "address",
          "name": "to",
          "type": "address"
        },
        {
          "internalType": "uint256",
          "name": "tokenId",
          "type": "uint256"
        }
      ],
      "name": "approve",
      "outputs": [],
      "stateMutability": "nonpayable",
      "type": "function"
    },
    {
      "inputs": [],
      "name": "artist",
      "outputs": [
        {
          "internalType": "address",
          "name": "",
          "type": "address"
        }
      ],
      "stateMutability": "view",
      "type": "function",
      "constant": true
    },
    {
      "inputs": [
        {
          "internalType": "address",
          "name": "owner",
          "type": "address"
        }
      ],
      "name": "balanceOf",
      "outputs": [
        {
          "internalType": "uint256",
          "name": "",
          "type": "uint256"
        }
      ],
      "stateMutability": "view",
      "type": "function",
      "constant": true
    },
    {
      "inputs": [],
      "name": "cost",
      "outputs": [
        {
          "internalType": "uint256",
          "name": "",
          "type": "uint256"
        }
      ],
      "stateMutability": "view",
      "type": "function",
      "constant": true
    },
    {
      "inputs": [
        {
          "internalType": "uint256",
          "name": "tokenId",
          "type": "uint256"
        }
      ],
      "name": "getApproved",
      "outputs": [
        {
          "internalType": "address",
          "name": "",
          "type": "address"
        }
      ],
      "stateMutability": "view",
      "type": "function",
      "constant": true
    },
    {
      "inputs": [
        {
          "internalType": "uint256",
          "name": "",
          "type": "uint256"
        }
      ],
      "name": "holderOf",
      "outputs": [
        {
          "internalType": "address",
          "name": "",
          "type": "address"
        }
      ],
      "stateMutability": "view",
      "type": "function",
      "constant": true
    },
    {
      "inputs": [
        {
          "internalType": "address",
          "name": "owner",
          "type": "address"
        },
        {
          "internalType": "address",
          "name": "operator",
          "type": "address"
        }
      ],
      "name": "isApprovedForAll",
      "outputs": [
        {
          "internalType": "bool",
          "name": "",
          "type": "bool"
        }
      ],
      "stateMutability": "view",
      "type": "function",
      "constant": true
    },
    {
      "inputs": [],
      "name": "name",
      "outputs": [
        {
          "internalType": "string",
          "name": "",
          "type": "string"
        }
      ],
      "stateMutability": "view",
      "type": "function",
      "constant": true
    },
    {
      "inputs": [],
      "name": "owner",
      "outputs": [
        {
          "internalType": "address",
          "name": "",
          "type": "address"
        }
      ],
      "stateMutability": "view",
      "type": "function",
      "constant": true
    },
    {
      "inputs": [
        {
          "internalType": "uint256",
          "name": "tokenId",
          "type": "uint256"
        }
      ],
      "name": "ownerOf",
      "outputs": [
        {
          "internalType": "address",
          "name": "",
          "type": "address"
        }
      ],
      "stateMutability": "view",
      "type": "function",
      "constant": true
    },
    {
      "inputs": [],
      "name": "renounceOwnership",
      "outputs": [],
      "stateMutability": "nonpayable",
      "type": "function"
    },
    {
      "inputs": [],
      "name": "royalityFee",
      "outputs": [
        {
          "internalType": "uint256",
          "name": "",
          "type": "uint256"
        }
      ],
      "stateMutability": "view",
      "type": "function",
      "constant": true
    },
    {
      "inputs": [
        {
          "internalType": "address",
          "name": "from",
          "type": "address"
        },
        {
          "internalType": "address",
          "name": "to",
          "type": "address"
        },
        {
          "internalType": "uint256",
          "name": "tokenId",
          "type": "uint256"
        }
      ],
      "name": "safeTransferFrom",
      "outputs": [],
      "stateMutability": "payable",
      "type": "function",
      "payable": true
    },
    {
      "inputs": [
        {
          "internalType": "address",
          "name": "from",
          "type": "address"
        },
        {
          "internalType": "address",
          "name": "to",
          "type": "address"
        },
        {
          "internalType": "uint256",
          "name": "tokenId",
          "type": "uint256"
        },
        {
          "internalType": "bytes",
          "name": "_data",
          "type": "bytes"
        }
      ],
      "name": "safeTransferFrom",
      "outputs": [],
      "stateMutability": "payable",
      "type": "function",
      "payable": true
    },
    {
      "inputs": [
        {
          "internalType": "address",
          "name": "operator",
          "type": "address"
        },
        {
          "internalType": "bool",
          "name": "approved",
          "type": "bool"
        }
      ],
      "name": "setApprovalForAll",
      "outputs": [],
      "stateMutability": "nonpayable",
      "type": "function"
    },
    {
      "inputs": [],
      "name": "supply",
      "outputs": [
        {
          "internalType": "uint256",
          "name": "",
          "type": "uint256"
        }
      ],
      "stateMutability": "view",
      "type": "function",
      "constant": true
    },
    {
      "inputs": [
        {
          "internalType": "bytes4",
          "name": "interfaceId",
          "type": "bytes4"
        }
      ],
      "name": "supportsInterface",
      "outputs": [
        {
          "internalType": "bool",
          "name": "",
          "type": "bool"
        }
      ],
      "stateMutability": "view",
      "type": "function",
      "constant": true
    },
    {
      "inputs": [],
      "name": "symbol",
      "outputs": [
        {
          "internalType": "string",
          "name": "",
          "type": "string"
        }
      ],
      "stateMutability": "view",
      "type": "function",
      "constant": true
    },
    {
      "inputs": [
        {
          "internalType": "uint256",
          "name": "index",
          "type": "uint256"
        }
      ],
      "name": "tokenByIndex",
      "outputs": [
        {
          "internalType": "uint256",
          "name": "",
          "type": "uint256"
        }
      ],
      "stateMutability": "view",
      "type": "function",
      "constant": true
    },
    {
      "inputs": [
        {
          "internalType": "address",
          "name": "owner",
          "type": "address"
        },
        {
          "internalType": "uint256",
          "name": "index",
          "type": "uint256"
        }
      ],
      "name": "tokenOfOwnerByIndex",
      "outputs": [
        {
          "internalType": "uint256",
          "name": "",
          "type": "uint256"
        }
      ],
      "stateMutability": "view",
      "type": "function",
      "constant": true
    },
    {
      "inputs": [
        {
          "internalType": "uint256",
          "name": "tokenId",
          "type": "uint256"
        }
      ],
      "name": "tokenURI",
      "outputs": [
        {
          "internalType": "string",
          "name": "",
          "type": "string"
        }
      ],
      "stateMutability": "view",
      "type": "function",
      "constant": true
    },
    {
      "inputs": [],
      "name": "totalSupply",
      "outputs": [
        {
          "internalType": "uint256",
          "name": "",
          "type": "uint256"
        }
      ],
      "stateMutability": "view",
      "type": "function",
      "constant": true
    },
    {
      "inputs": [],
      "name": "totalTx",
      "outputs": [
        {
          "internalType": "uint256",
          "name": "",
          "type": "uint256"
        }
      ],
      "stateMutability": "view",
      "type": "function",
      "constant": true
    },
    {
      "inputs": [
        {
          "internalType": "address",
          "name": "from",
          "type": "address"
        },
        {
          "internalType": "address",
          "name": "to",
          "type": "address"
        },
        {
          "internalType": "uint256",
          "name": "tokenId",
          "type": "uint256"
        }
      ],
      "name": "transferFrom",
      "outputs": [],
      "stateMutability": "payable",
      "type": "function",
      "payable": true
    },
    {
      "inputs": [
        {
          "internalType": "address",
          "name": "newOwner",
          "type": "address"
        }
      ],
      "name": "transferOwnership",
      "outputs": [],
      "stateMutability": "nonpayable",
      "type": "function"
    },
    {
      "inputs": [
        {
          "internalType": "string",
          "name": "title",
          "type": "string"
        },
        {
          "internalType": "string",
          "name": "description",
          "type": "string"
        },
        {
          "internalType": "string",
          "name": "metadataURI",
          "type": "string"
        },
        {
          "internalType": "uint256",
          "name": "salesPrice",
          "type": "uint256"
        }
      ],
      "name": "payToMint",
      "outputs": [],
      "stateMutability": "payable",
      "type": "function",
      "payable": true
    },
    {
      "inputs": [
        {
          "internalType": "uint256",
          "name": "id",
          "type": "uint256"
        }
      ],
      "name": "payToBuy",
      "outputs": [],
      "stateMutability": "payable",
      "type": "function",
      "payable": true
    },
    {
      "inputs": [
        {
          "internalType": "uint256",
          "name": "id",
          "type": "uint256"
        },
        {
          "internalType": "uint256",
          "name": "newPrice",
          "type": "uint256"
        }
      ],
      "name": "changePrice",
      "outputs": [
        {
          "internalType": "bool",
          "name": "",
          "type": "bool"
        }
      ],
      "stateMutability": "nonpayable",
      "type": "function"
    },
    {
      "inputs": [],
      "name": "getAllNFTs",
      "outputs": [
        {
          "components": [
            {
              "internalType": "uint256",
              "name": "id",
              "type": "uint256"
            },
            {
              "internalType": "address",
              "name": "owner",
              "type": "address"
            },
            {
              "internalType": "uint256",
              "name": "cost",
              "type": "uint256"
            },
            {
              "internalType": "string",
              "name": "title",
              "type": "string"
            },
            {
              "internalType": "string",
              "name": "description",
              "type": "string"
            },
            {
              "internalType": "string",
              "name": "metadataURI",
              "type": "string"
            },
            {
              "internalType": "uint256",
              "name": "timestamp",
              "type": "uint256"
            }
          ],
          "internalType": "struct TimelessNFT.TransactionStruct[]",
          "name": "",
          "type": "tuple[]"
        }
      ],
      "stateMutability": "view",
      "type": "function",
      "constant": true
    },
    {
      "inputs": [
        {
          "internalType": "uint256",
          "name": "id",
          "type": "uint256"
        }
      ],
      "name": "getNFT",
      "outputs": [
        {
          "components": [
            {
              "internalType": "uint256",
              "name": "id",
              "type": "uint256"
            },
            {
              "internalType": "address",
              "name": "owner",
              "type": "address"
            },
            {
              "internalType": "uint256",
              "name": "cost",
              "type": "uint256"
            },
            {
              "internalType": "string",
              "name": "title",
              "type": "string"
            },
            {
              "internalType": "string",
              "name": "description",
              "type": "string"
            },
            {
              "internalType": "string",
              "name": "metadataURI",
              "type": "string"
            },
            {
              "internalType": "uint256",
              "name": "timestamp",
              "type": "uint256"
            }
          ],
          "internalType": "struct TimelessNFT.TransactionStruct",
          "name": "",
          "type": "tuple"
        }
      ],
      "stateMutability": "view",
      "type": "function",
      "constant": true
    },
    {
      "inputs": [],
      "name": "getAllTransactions",
      "outputs": [
        {
          "components": [
            {
              "internalType": "uint256",
              "name": "id",
              "type": "uint256"
            },
            {
              "internalType": "address",
              "name": "owner",
              "type": "address"
            },
            {
              "internalType": "uint256",
              "name": "cost",
              "type": "uint256"
            },
            {
              "internalType": "string",
              "name": "title",
              "type": "string"
            },
            {
              "internalType": "string",
              "name": "description",
              "type": "string"
            },
            {
              "internalType": "string",
              "name": "metadataURI",
              "type": "string"
            },
            {
              "internalType": "uint256",
              "name": "timestamp",
              "type": "uint256"
            }
          ],
          "internalType": "struct TimelessNFT.TransactionStruct[]",
          "name": "",
          "type": "tuple[]"
        }
      ],
      "stateMutability": "view",
      "type": "function",
      "constant": true
    }
  ],
  "bytecode": "0x60806040526000600f556000601055662386f26fc100006011553480156200002657600080fd5b5060405162005cfb38038062005cfb83398181016040528101906200004c9190620003e7565b838381600090816200005f9190620006d8565b508060019081620000719190620006d8565b5050506200009462000088620000e660201b60201c565b620000ee60201b60201c565b81600e8190555080600d60006101000a81548173ffffffffffffffffffffffffffffffffffffffff021916908373ffffffffffffffffffffffffffffffffffffffff16021790555050505050620007bf565b600033905090565b6000600a60009054906101000a900473ffffffffffffffffffffffffffffffffffffffff16905081600a60006101000a81548173ffffffffffffffffffffffffffffffffffffffff021916908373ffffffffffffffffffffffffffffffffffffffff1602179055508173ffffffffffffffffffffffffffffffffffffffff168173ffffffffffffffffffffffffffffffffffffffff167f8be0079c531659141344cd1fd0a4f28419497f9722a3daafe3b4186f6b6457e060405160405180910390a35050565b6000604051905090565b600080fd5b600080fd5b600080fd5b600080fd5b6000601f19601f8301169050919050565b7f4e487b7100000000000000000000000000000000000000000000000000000000600052604160045260246000fd5b6200021d82620001d2565b810181811067ffffffffffffffff821117156200023f576200023e620001e3565b5b80604052505050565b600062000254620001b4565b905062000262828262000212565b919050565b600067ffffffffffffffff821115620002855762000284620001e3565b5b6200029082620001d2565b9050602081019050919050565b60005b83811015620002bd578082015181840152602081019050620002a0565b60008484015250505050565b6000620002e0620002da8462000267565b62000248565b905082815260208101848484011115620002ff57620002fe620001cd565b5b6200030c8482856200029d565b509392505050565b600082601f8301126200032c576200032b620001c8565b5b81516200033e848260208601620002c9565b91505092915050565b6000819050919050565b6200035c8162000347565b81146200036857600080fd5b50565b6000815190506200037c8162000351565b92915050565b600073ffffffffffffffffffffffffffffffffffffffff82169050919050565b6000620003af8262000382565b9050919050565b620003c181620003a2565b8114620003cd57600080fd5b50565b600081519050620003e181620003b6565b92915050565b60008060008060808587031215620004045762000403620001be565b5b600085015167ffffffffffffffff811115620004255762000424620001c3565b5b620004338782880162000314565b945050602085015167ffffffffffffffff811115620004575762000456620001c3565b5b620004658782880162000314565b935050604062000478878288016200036b565b92505060606200048b87828801620003d0565b91505092959194509250565b600081519050919050565b7f4e487b7100000000000000000000000000000000000000000000000000000000600052602260045260246000fd5b60006002820490506001821680620004ea57607f821691505b6020821081036200050057620004ff620004a2565b5b50919050565b60008190508160005260206000209050919050565b60006020601f8301049050919050565b600082821b905092915050565b6000600883026200056a7fffffffffffffffffffffffffffffffffffffffffffffffffffffffffffffffff826200052b565b6200057686836200052b565b95508019841693508086168417925050509392505050565b6000819050919050565b6000620005b9620005b3620005ad8462000347565b6200058e565b62000347565b9050919050565b6000819050919050565b620005d58362000598565b620005ed620005e482620005c0565b84845462000538565b825550505050565b600090565b62000604620005f5565b62000611818484620005ca565b505050565b5b8181101562000639576200062d600082620005fa565b60018101905062000617565b5050565b601f8211156200068857620006528162000506565b6200065d846200051b565b810160208510156200066d578190505b620006856200067c856200051b565b83018262000616565b50505b505050565b600082821c905092915050565b6000620006ad600019846008026200068d565b1980831691505092915050565b6000620006c883836200069a565b9150826002028217905092915050565b620006e38262000497565b67ffffffffffffffff811115620006ff57620006fe620001e3565b5b6200070b8254620004d1565b620007188282856200063d565b600060209050601f8311600181146200075057600084156200073b578287015190505b620007478582620006ba565b865550620007b7565b601f198416620007608662000506565b60005b828110156200078a5784890151825560018201915060208501945060208101905062000763565b86831015620007aa5784890151620007a6601f8916826200069a565b8355505b6001600288020188555050505b505050505050565b61552c80620007cf6000396000f3fe6080604052600436106101d85760003560e01c80636352211e11610102578063a22cb46511610095578063dbacc23711610064578063dbacc237146106a5578063e0391b09146106e2578063e985e9c51461070d578063f2fde38b1461074a576101d8565b8063a22cb465146105e6578063b3de019c1461060f578063b88d4fde1461064c578063c87b56dd14610668576101d8565b8063799c0c1e116100d1578063799c0c1e146105585780638da5cb5b1461057457806395d89b411461059f5780639ba4b017146105ca576101d8565b80636352211e1461049c57806370a08231146104d9578063715018a6146105165780637220cf391461052d576101d8565b806323b872dd1161017a57806342842e0e1161014957806342842e0e146103db57806343bc1612146103f75780634f6ccce714610422578063576f7ea71461045f576101d8565b806323b872dd1461032c57806327506f53146103485780632f745c5914610373578063326bb4ad146103b0576101d8565b8063081812fc116101b6578063081812fc14610270578063095ea7b3146102ad57806313faede6146102d657806318160ddd14610301576101d8565b806301ffc9a7146101dd578063047fc9aa1461021a57806306fdde0314610245575b600080fd5b3480156101e957600080fd5b5061020460048036038101906101ff919061379d565b610773565b60405161021191906137e5565b60405180910390f35b34801561022657600080fd5b5061022f6107ed565b60405161023c9190613819565b60405180910390f35b34801561025157600080fd5b5061025a6107f3565b60405161026791906138c4565b60405180910390f35b34801561027c57600080fd5b5061029760048036038101906102929190613912565b610885565b6040516102a49190613980565b60405180910390f35b3480156102b957600080fd5b506102d460048036038101906102cf91906139c7565b61090a565b005b3480156102e257600080fd5b506102eb610a21565b6040516102f89190613819565b60405180910390f35b34801561030d57600080fd5b50610316610a27565b6040516103239190613819565b60405180910390f35b61034660048036038101906103419190613a07565b610a34565b005b34801561035457600080fd5b5061035d610a94565b60405161036a9190613c2e565b60405180910390f35b34801561037f57600080fd5b5061039a600480360381019061039591906139c7565b610d1d565b6040516103a79190613819565b60405180910390f35b3480156103bc57600080fd5b506103c5610dc2565b6040516103d29190613819565b60405180910390f35b6103f560048036038101906103f09190613a07565b610dc8565b005b34801561040357600080fd5b5061040c610de8565b6040516104199190613980565b60405180910390f35b34801561042e57600080fd5b5061044960048036038101906104449190613912565b610e0e565b6040516104569190613819565b60405180910390f35b34801561046b57600080fd5b5061048660048036038101906104819190613912565b610e7f565b6040516104939190613cfa565b60405180910390f35b3480156104a857600080fd5b506104c360048036038101906104be9190613912565b6110f1565b6040516104d09190613980565b60405180910390f35b3480156104e557600080fd5b5061050060048036038101906104fb9190613d1c565b6111a2565b60405161050d9190613819565b60405180910390f35b34801561052257600080fd5b5061052b611259565b005b34801561053957600080fd5b5061054261126d565b60405161054f9190613819565b60405180910390f35b610572600480360381019061056d9190613e7e565b611273565b005b34801561058057600080fd5b50610589611630565b6040516105969190613980565b60405180910390f35b3480156105ab57600080fd5b506105b461165a565b6040516105c191906138c4565b60405180910390f35b6105e460048036038101906105df9190613912565b6116ec565b005b3480156105f257600080fd5b5061060d60048036038101906106089190613f65565b611d2b565b005b34801561061b57600080fd5b5061063660048036038101906106319190613fa5565b611d41565b60405161064391906137e5565b60405180910390f35b61066660048036038101906106619190614086565b611e84565b005b34801561067457600080fd5b5061068f600480360381019061068a9190613912565b611ee6565b60405161069c91906138c4565b60405180910390f35b3480156106b157600080fd5b506106cc60048036038101906106c79190613912565b611f8d565b6040516106d99190613980565b60405180910390f35b3480156106ee57600080fd5b506106f7611fc0565b6040516107049190613c2e565b60405180910390f35b34801561071957600080fd5b50610734600480360381019061072f9190614109565b612249565b60405161074191906137e5565b60405180910390f35b34801561075657600080fd5b50610771600480360381019061076c9190613d1c565b6122dd565b005b60007f780e9d63000000000000000000000000000000000000000000000000000000007bffffffffffffffffffffffffffffffffffffffffffffffffffffffff1916827bffffffffffffffffffffffffffffffffffffffffffffffffffffffff191614806107e657506107e582612360565b5b9050919050565b600f5481565b60606000805461080290614178565b80601f016020809104026020016040519081016040528092919081815260200182805461082e90614178565b801561087b5780601f106108505761010080835404028352916020019161087b565b820191906000526020600020905b81548152906001019060200180831161085e57829003601f168201915b5050505050905090565b600061089082612442565b6108cf576040517f08c379a00000000000000000000000000000000000000000000000000000000081526004016108c69061421b565b60405180910390fd5b6004600083815260200190815260200160002060009054906101000a900473ffffffffffffffffffffffffffffffffffffffff169050919050565b6000610915826110f1565b90508073ffffffffffffffffffffffffffffffffffffffff168373ffffffffffffffffffffffffffffffffffffffff1603610985576040517f08c379a000000000000000000000000000000000000000000000000000000000815260040161097c906142ad565b60405180910390fd5b8073ffffffffffffffffffffffffffffffffffffffff166109a46124ae565b73ffffffffffffffffffffffffffffffffffffffff1614806109d357506109d2816109cd6124ae565b612249565b5b610a12576040517f08c379a0000000000000000000000000000000000000000000000000000000008152600401610a099061433f565b60405180910390fd5b610a1c83836124b6565b505050565b60115481565b6000600880549050905090565b610a45610a3f6124ae565b8261256f565b610a84576040517f08c379a0000000000000000000000000000000000000000000000000000000008152600401610a7b906143d1565b60405180910390fd5b610a8f83838361264d565b505050565b60606012805480602002602001604051908101604052809291908181526020016000905b82821015610d1457838290600052602060002090600702016040518060e0016040529081600082015481526020016001820160009054906101000a900473ffffffffffffffffffffffffffffffffffffffff1673ffffffffffffffffffffffffffffffffffffffff1673ffffffffffffffffffffffffffffffffffffffff16815260200160028201548152602001600382018054610b5590614178565b80601f0160208091040260200160405190810160405280929190818152602001828054610b8190614178565b8015610bce5780601f10610ba357610100808354040283529160200191610bce565b820191906000526020600020905b815481529060010190602001808311610bb157829003601f168201915b50505050508152602001600482018054610be790614178565b80601f0160208091040260200160405190810160405280929190818152602001828054610c1390614178565b8015610c605780601f10610c3557610100808354040283529160200191610c60565b820191906000526020600020905b815481529060010190602001808311610c4357829003601f168201915b50505050508152602001600582018054610c7990614178565b80601f0160208091040260200160405190810160405280929190818152602001828054610ca590614178565b8015610cf25780601f10610cc757610100808354040283529160200191610cf2565b820191906000526020600020905b815481529060010190602001808311610cd557829003601f168201915b5050505050815260200160068201548152505081526020019060010190610ab8565b50505050905090565b6000610d28836111a2565b8210610d69576040517f08c379a0000000000000000000000000000000000000000000000000000000008152600401610d6090614463565b60405180910390fd5b600660008473ffffffffffffffffffffffffffffffffffffffff1673ffffffffffffffffffffffffffffffffffffffff168152602001908152602001600020600083815260200190815260200160002054905092915050565b600e5481565b610de383838360405180602001604052806000815250611e84565b505050565b600d60009054906101000a900473ffffffffffffffffffffffffffffffffffffffff1681565b6000610e18610a27565b8210610e59576040517f08c379a0000000000000000000000000000000000000000000000000000000008152600401610e50906144f5565b60405180910390fd5b60088281548110610e6d57610e6c614515565b5b90600052602060002001549050919050565b610e876136de565b6013600183610e969190614573565b81548110610ea757610ea6614515565b5b90600052602060002090600702016040518060e0016040529081600082015481526020016001820160009054906101000a900473ffffffffffffffffffffffffffffffffffffffff1673ffffffffffffffffffffffffffffffffffffffff1673ffffffffffffffffffffffffffffffffffffffff16815260200160028201548152602001600382018054610f3a90614178565b80601f0160208091040260200160405190810160405280929190818152602001828054610f6690614178565b8015610fb35780601f10610f8857610100808354040283529160200191610fb3565b820191906000526020600020905b815481529060010190602001808311610f9657829003601f168201915b50505050508152602001600482018054610fcc90614178565b80601f0160208091040260200160405190810160405280929190818152602001828054610ff890614178565b80156110455780601f1061101a57610100808354040283529160200191611045565b820191906000526020600020905b81548152906001019060200180831161102857829003601f168201915b5050505050815260200160058201805461105e90614178565b80601f016020809104026020016040519081016040528092919081815260200182805461108a90614178565b80156110d75780601f106110ac576101008083540402835291602001916110d7565b820191906000526020600020905b8154815290600101906020018083116110ba57829003601f168201915b505050505081526020016006820154815250509050919050565b6000806002600084815260200190815260200160002060009054906101000a900473ffffffffffffffffffffffffffffffffffffffff169050600073ffffffffffffffffffffffffffffffffffffffff168173ffffffffffffffffffffffffffffffffffffffff1603611199576040517f08c379a000000000000000000000000000000000000000000000000000000000815260040161119090614619565b60405180910390fd5b80915050919050565b60008073ffffffffffffffffffffffffffffffffffffffff168273ffffffffffffffffffffffffffffffffffffffff1603611212576040517f08c379a0000000000000000000000000000000000000000000000000000000008152600401611209906146ab565b60405180910390fd5b600360008373ffffffffffffffffffffffffffffffffffffffff1673ffffffffffffffffffffffffffffffffffffffff168152602001908152602001600020549050919050565b6112616128a8565b61126b6000612926565b565b60105481565b6011543410156112b8576040517f08c379a00000000000000000000000000000000000000000000000000000000081526004016112af90614717565b60405180910390fd5b6000600b836040516112ca9190614773565b908152602001604051809103902060009054906101000a900460ff1660ff1614611329576040517f08c379a0000000000000000000000000000000000000000000000000000000008152600401611320906147d6565b60405180910390fd5b611331611630565b73ffffffffffffffffffffffffffffffffffffffff163373ffffffffffffffffffffffffffffffffffffffff160361139e576040517f08c379a000000000000000000000000000000000000000000000000000000000815260040161139590614842565b60405180910390fd5b60006064600e54346113b09190614862565b6113ba91906148d3565b90506113e8600d60009054906101000a900473ffffffffffffffffffffffffffffffffffffffff16826129ec565b6114046113f3611630565b82346113ff9190614573565b6129ec565b600f600081548092919061141790614904565b919050555060136040518060e00160405280600f5481526020013373ffffffffffffffffffffffffffffffffffffffff1681526020018481526020018781526020018681526020018581526020014281525090806001815401808255809150506001900390600052602060002090600702016000909190919091506000820151816000015560208201518160010160006101000a81548173ffffffffffffffffffffffffffffffffffffffff021916908373ffffffffffffffffffffffffffffffffffffffff1602179055506040820151816002015560608201518160030190816115029190614af8565b5060808201518160040190816115189190614af8565b5060a082015181600501908161152e9190614af8565b5060c0820151816006015550503373ffffffffffffffffffffffffffffffffffffffff167fb9508407a6eccb191d8da3286f4173697cf95604e9ea192fe5ab7c862b5221f6600f543486426040516115899493929190614bca565b60405180910390a261159d33600f54612a67565b6001600b846040516115af9190614773565b908152602001604051809103902060006101000a81548160ff021916908360ff16021790555033600c6000600f54815260200190815260200160002060006101000a81548173ffffffffffffffffffffffffffffffffffffffff021916908373ffffffffffffffffffffffffffffffffffffffff1602179055505050505050565b6000600a60009054906101000a900473ffffffffffffffffffffffffffffffffffffffff16905090565b60606001805461166990614178565b80601f016020809104026020016040519081016040528092919081815260200182805461169590614178565b80156116e25780601f106116b7576101008083540402835291602001916116e2565b820191906000526020600020905b8154815290600101906020018083116116c557829003601f168201915b5050505050905090565b60136001826116fb9190614573565b8154811061170c5761170b614515565b5b906000526020600020906007020160020154341015611760576040517f08c379a000000000000000000000000000000000000000000000000000000000815260040161175790614c62565b60405180910390fd5b601360018261176f9190614573565b815481106117805761177f614515565b5b906000526020600020906007020160010160009054906101000a900473ffffffffffffffffffffffffffffffffffffffff1673ffffffffffffffffffffffffffffffffffffffff163373ffffffffffffffffffffffffffffffffffffffff160361181f576040517f08c379a000000000000000000000000000000000000000000000000000000000815260040161181690614cce565b60405180910390fd5b60006064600e54346118319190614862565b61183b91906148d3565b9050611869600d60009054906101000a900473ffffffffffffffffffffffffffffffffffffffff16826129ec565b6118cf601360018461187b9190614573565b8154811061188c5761188b614515565b5b906000526020600020906007020160010160009054906101000a900473ffffffffffffffffffffffffffffffffffffffff1682346118ca9190614573565b6129ec565b601060008154809291906118e290614904565b919050555060126040518060e0016040528060105481526020013373ffffffffffffffffffffffffffffffffffffffff168152602001348152602001601360018661192d9190614573565b8154811061193e5761193d614515565b5b9060005260206000209060070201600301805461195a90614178565b80601f016020809104026020016040519081016040528092919081815260200182805461198690614178565b80156119d35780601f106119a8576101008083540402835291602001916119d3565b820191906000526020600020905b8154815290600101906020018083116119b657829003601f168201915b5050505050815260200160136001866119ec9190614573565b815481106119fd576119fc614515565b5b90600052602060002090600702016004018054611a1990614178565b80601f0160208091040260200160405190810160405280929190818152602001828054611a4590614178565b8015611a925780601f10611a6757610100808354040283529160200191611a92565b820191906000526020600020905b815481529060010190602001808311611a7557829003601f168201915b505050505081526020016013600186611aab9190614573565b81548110611abc57611abb614515565b5b90600052602060002090600702016005018054611ad890614178565b80601f0160208091040260200160405190810160405280929190818152602001828054611b0490614178565b8015611b515780601f10611b2657610100808354040283529160200191611b51565b820191906000526020600020905b815481529060010190602001808311611b3457829003601f168201915b505050505081526020014281525090806001815401808255809150506001900390600052602060002090600702016000909190919091506000820151816000015560208201518160010160006101000a81548173ffffffffffffffffffffffffffffffffffffffff021916908373ffffffffffffffffffffffffffffffffffffffff160217905550604082015181600201556060820151816003019081611bf89190614af8565b506080820151816004019081611c0e9190614af8565b5060a0820151816005019081611c249190614af8565b5060c0820151816006015550503373ffffffffffffffffffffffffffffffffffffffff167fb9508407a6eccb191d8da3286f4173697cf95604e9ea192fe5ab7c862b5221f6601054346013600187611c7c9190614573565b81548110611c8d57611c8c614515565b5b906000526020600020906007020160050142604051611caf9493929190614d72565b60405180910390a2336013600184611cc79190614573565b81548110611cd857611cd7614515565b5b906000526020600020906007020160010160006101000a81548173ffffffffffffffffffffffffffffffffffffffff021916908373ffffffffffffffffffffffffffffffffffffffff1602179055505050565b611d3d611d366124ae565b8383612a85565b5050565b6000808211611d85576040517f08c379a0000000000000000000000000000000000000000000000000000000008152600401611d7c90614e0a565b60405180910390fd5b6013600184611d949190614573565b81548110611da557611da4614515565b5b906000526020600020906007020160010160009054906101000a900473ffffffffffffffffffffffffffffffffffffffff1673ffffffffffffffffffffffffffffffffffffffff163373ffffffffffffffffffffffffffffffffffffffff1614611e44576040517f08c379a0000000000000000000000000000000000000000000000000000000008152600401611e3b90614cce565b60405180910390fd5b816013600185611e549190614573565b81548110611e6557611e64614515565b5b9060005260206000209060070201600201819055506001905092915050565b611e95611e8f6124ae565b8361256f565b611ed4576040517f08c379a0000000000000000000000000000000000000000000000000000000008152600401611ecb906143d1565b60405180910390fd5b611ee084848484612bf1565b50505050565b6060611ef182612442565b611f30576040517f08c379a0000000000000000000000000000000000000000000000000000000008152600401611f2790614e9c565b60405180910390fd5b6000611f3a612c4d565b90506000815111611f5a5760405180602001604052806000815250611f85565b80611f6484612c64565b604051602001611f75929190614ebc565b6040516020818303038152906040525b915050919050565b600c6020528060005260406000206000915054906101000a900473ffffffffffffffffffffffffffffffffffffffff1681565b60606013805480602002602001604051908101604052809291908181526020016000905b8282101561224057838290600052602060002090600702016040518060e0016040529081600082015481526020016001820160009054906101000a900473ffffffffffffffffffffffffffffffffffffffff1673ffffffffffffffffffffffffffffffffffffffff1673ffffffffffffffffffffffffffffffffffffffff1681526020016002820154815260200160038201805461208190614178565b80601f01602080910402602001604051908101604052809291908181526020018280546120ad90614178565b80156120fa5780601f106120cf576101008083540402835291602001916120fa565b820191906000526020600020905b8154815290600101906020018083116120dd57829003601f168201915b5050505050815260200160048201805461211390614178565b80601f016020809104026020016040519081016040528092919081815260200182805461213f90614178565b801561218c5780601f106121615761010080835404028352916020019161218c565b820191906000526020600020905b81548152906001019060200180831161216f57829003601f168201915b505050505081526020016005820180546121a590614178565b80601f01602080910402602001604051908101604052809291908181526020018280546121d190614178565b801561221e5780601f106121f35761010080835404028352916020019161221e565b820191906000526020600020905b81548152906001019060200180831161220157829003601f168201915b5050505050815260200160068201548152505081526020019060010190611fe4565b50505050905090565b6000600560008473ffffffffffffffffffffffffffffffffffffffff1673ffffffffffffffffffffffffffffffffffffffff16815260200190815260200160002060008373ffffffffffffffffffffffffffffffffffffffff1673ffffffffffffffffffffffffffffffffffffffff16815260200190815260200160002060009054906101000a900460ff16905092915050565b6122e56128a8565b600073ffffffffffffffffffffffffffffffffffffffff168173ffffffffffffffffffffffffffffffffffffffff1603612354576040517f08c379a000000000000000000000000000000000000000000000000000000000815260040161234b90614f52565b60405180910390fd5b61235d81612926565b50565b60007f80ac58cd000000000000000000000000000000000000000000000000000000007bffffffffffffffffffffffffffffffffffffffffffffffffffffffff1916827bffffffffffffffffffffffffffffffffffffffffffffffffffffffff1916148061242b57507f5b5e139f000000000000000000000000000000000000000000000000000000007bffffffffffffffffffffffffffffffffffffffffffffffffffffffff1916827bffffffffffffffffffffffffffffffffffffffffffffffffffffffff1916145b8061243b575061243a82612d32565b5b9050919050565b60008073ffffffffffffffffffffffffffffffffffffffff166002600084815260200190815260200160002060009054906101000a900473ffffffffffffffffffffffffffffffffffffffff1673ffffffffffffffffffffffffffffffffffffffff1614159050919050565b600033905090565b816004600083815260200190815260200160002060006101000a81548173ffffffffffffffffffffffffffffffffffffffff021916908373ffffffffffffffffffffffffffffffffffffffff160217905550808273ffffffffffffffffffffffffffffffffffffffff16612529836110f1565b73ffffffffffffffffffffffffffffffffffffffff167f8c5be1e5ebec7d5bd14f71427d1e84f3dd0314c0f7b2291e5b200ac8c7c3b92560405160405180910390a45050565b600061257a82612442565b6125b9576040517f08c379a00000000000000000000000000000000000000000000000000000000081526004016125b090614fe4565b60405180910390fd5b60006125c4836110f1565b90508073ffffffffffffffffffffffffffffffffffffffff168473ffffffffffffffffffffffffffffffffffffffff16148061263357508373ffffffffffffffffffffffffffffffffffffffff1661261b84610885565b73ffffffffffffffffffffffffffffffffffffffff16145b8061264457506126438185612249565b5b91505092915050565b8273ffffffffffffffffffffffffffffffffffffffff1661266d826110f1565b73ffffffffffffffffffffffffffffffffffffffff16146126c3576040517f08c379a00000000000000000000000000000000000000000000000000000000081526004016126ba90615076565b60405180910390fd5b600073ffffffffffffffffffffffffffffffffffffffff168273ffffffffffffffffffffffffffffffffffffffff1603612732576040517f08c379a000000000000000000000000000000000000000000000000000000000815260040161272990615108565b60405180910390fd5b61273d838383612d9c565b6127486000826124b6565b6001600360008573ffffffffffffffffffffffffffffffffffffffff1673ffffffffffffffffffffffffffffffffffffffff16815260200190815260200160002060008282546127989190614573565b925050819055506001600360008473ffffffffffffffffffffffffffffffffffffffff1673ffffffffffffffffffffffffffffffffffffffff16815260200190815260200160002060008282546127ef9190615128565b92505081905550816002600083815260200190815260200160002060006101000a81548173ffffffffffffffffffffffffffffffffffffffff021916908373ffffffffffffffffffffffffffffffffffffffff160217905550808273ffffffffffffffffffffffffffffffffffffffff168473ffffffffffffffffffffffffffffffffffffffff167fddf252ad1be2c89b69c2b068fc378daa952ba7f163c4a11628f55a4df523b3ef60405160405180910390a4505050565b6128b06124ae565b73ffffffffffffffffffffffffffffffffffffffff166128ce611630565b73ffffffffffffffffffffffffffffffffffffffff1614612924576040517f08c379a000000000000000000000000000000000000000000000000000000000815260040161291b906151a8565b60405180910390fd5b565b6000600a60009054906101000a900473ffffffffffffffffffffffffffffffffffffffff16905081600a60006101000a81548173ffffffffffffffffffffffffffffffffffffffff021916908373ffffffffffffffffffffffffffffffffffffffff1602179055508173ffffffffffffffffffffffffffffffffffffffff168173ffffffffffffffffffffffffffffffffffffffff167f8be0079c531659141344cd1fd0a4f28419497f9722a3daafe3b4186f6b6457e060405160405180910390a35050565b60008273ffffffffffffffffffffffffffffffffffffffff1682604051612a12906151f9565b60006040518083038185875af1925050503d8060008114612a4f576040519150601f19603f3d011682016040523d82523d6000602084013e612a54565b606091505b5050905080612a6257600080fd5b505050565b612a81828260405180602001604052806000815250612eae565b5050565b8173ffffffffffffffffffffffffffffffffffffffff168373ffffffffffffffffffffffffffffffffffffffff1603612af3576040517f08c379a0000000000000000000000000000000000000000000000000000000008152600401612aea9061525a565b60405180910390fd5b80600560008573ffffffffffffffffffffffffffffffffffffffff1673ffffffffffffffffffffffffffffffffffffffff16815260200190815260200160002060008473ffffffffffffffffffffffffffffffffffffffff1673ffffffffffffffffffffffffffffffffffffffff16815260200190815260200160002060006101000a81548160ff0219169083151502179055508173ffffffffffffffffffffffffffffffffffffffff168373ffffffffffffffffffffffffffffffffffffffff167f17307eab39ab6107e8899845ad3d59bd9653f200f220920489ca2b5937696c3183604051612be491906137e5565b60405180910390a3505050565b612bfc84848461264d565b612c0884848484612f09565b612c47576040517f08c379a0000000000000000000000000000000000000000000000000000000008152600401612c3e906152ec565b60405180910390fd5b50505050565b606060405180602001604052806000815250905090565b606060006001612c7384613090565b01905060008167ffffffffffffffff811115612c9257612c91613d53565b5b6040519080825280601f01601f191660200182016040528015612cc45781602001600182028036833780820191505090505b509050600082602001820190505b600115612d27578080600190039150507f3031323334353637383961626364656600000000000000000000000000000000600a86061a8153600a8581612d1b57612d1a6148a4565b5b04945060008503612cd2575b819350505050919050565b60007f01ffc9a7000000000000000000000000000000000000000000000000000000007bffffffffffffffffffffffffffffffffffffffffffffffffffffffff1916827bffffffffffffffffffffffffffffffffffffffffffffffffffffffff1916149050919050565b612da78383836131e3565b600073ffffffffffffffffffffffffffffffffffffffff168373ffffffffffffffffffffffffffffffffffffffff1603612de957612de4816131e8565b612e28565b8173ffffffffffffffffffffffffffffffffffffffff168373ffffffffffffffffffffffffffffffffffffffff1614612e2757612e268382613231565b5b5b600073ffffffffffffffffffffffffffffffffffffffff168273ffffffffffffffffffffffffffffffffffffffff1603612e6a57612e658161339e565b612ea9565b8273ffffffffffffffffffffffffffffffffffffffff168273ffffffffffffffffffffffffffffffffffffffff1614612ea857612ea7828261346f565b5b5b505050565b612eb883836134ee565b612ec56000848484612f09565b612f04576040517f08c379a0000000000000000000000000000000000000000000000000000000008152600401612efb906152ec565b60405180910390fd5b505050565b6000612f2a8473ffffffffffffffffffffffffffffffffffffffff166136bb565b15613083578373ffffffffffffffffffffffffffffffffffffffff1663150b7a02612f536124ae565b8786866040518563ffffffff1660e01b8152600401612f759493929190615361565b6020604051808303816000875af1925050508015612fb157506040513d601f19601f82011682018060405250810190612fae91906153c2565b60015b613033573d8060008114612fe1576040519150601f19603f3d011682016040523d82523d6000602084013e612fe6565b606091505b50600081510361302b576040517f08c379a0000000000000000000000000000000000000000000000000000000008152600401613022906152ec565b60405180910390fd5b805181602001fd5b63150b7a0260e01b7bffffffffffffffffffffffffffffffffffffffffffffffffffffffff1916817bffffffffffffffffffffffffffffffffffffffffffffffffffffffff191614915050613088565b600190505b949350505050565b600080600090507a184f03e93ff9f4daa797ed6e38ed64bf6a1f01000000000000000083106130ee577a184f03e93ff9f4daa797ed6e38ed64bf6a1f01000000000000000083816130e4576130e36148a4565b5b0492506040810190505b6d04ee2d6d415b85acef8100000000831061312b576d04ee2d6d415b85acef81000000008381613121576131206148a4565b5b0492506020810190505b662386f26fc10000831061315a57662386f26fc1000083816131505761314f6148a4565b5b0492506010810190505b6305f5e1008310613183576305f5e1008381613179576131786148a4565b5b0492506008810190505b61271083106131a857612710838161319e5761319d6148a4565b5b0492506004810190505b606483106131cb57606483816131c1576131c06148a4565b5b0492506002810190505b600a83106131da576001810190505b80915050919050565b505050565b6008805490506009600083815260200190815260200160002081905550600881908060018154018082558091505060019003906000526020600020016000909190919091505550565b6000600161323e846111a2565b6132489190614573565b905060006007600084815260200190815260200160002054905081811461332d576000600660008673ffffffffffffffffffffffffffffffffffffffff1673ffffffffffffffffffffffffffffffffffffffff168152602001908152602001600020600084815260200190815260200160002054905080600660008773ffffffffffffffffffffffffffffffffffffffff1673ffffffffffffffffffffffffffffffffffffffff168152602001908152602001600020600084815260200190815260200160002081905550816007600083815260200190815260200160002081905550505b6007600084815260200190815260200160002060009055600660008573ffffffffffffffffffffffffffffffffffffffff1673ffffffffffffffffffffffffffffffffffffffff16815260200190815260200160002060008381526020019081526020016000206000905550505050565b600060016008805490506133b29190614573565b90506000600960008481526020019081526020016000205490506000600883815481106133e2576133e1614515565b5b90600052602060002001549050806008838154811061340457613403614515565b5b906000526020600020018190555081600960008381526020019081526020016000208190555060096000858152602001908152602001600020600090556008805480613453576134526153ef565b5b6001900381819060005260206000200160009055905550505050565b600061347a836111a2565b905081600660008573ffffffffffffffffffffffffffffffffffffffff1673ffffffffffffffffffffffffffffffffffffffff168152602001908152602001600020600083815260200190815260200160002081905550806007600084815260200190815260200160002081905550505050565b600073ffffffffffffffffffffffffffffffffffffffff168273ffffffffffffffffffffffffffffffffffffffff160361355d576040517f08c379a00000000000000000000000000000000000000000000000000000000081526004016135549061546a565b60405180910390fd5b61356681612442565b156135a6576040517f08c379a000000000000000000000000000000000000000000000000000000000815260040161359d906154d6565b60405180910390fd5b6135b260008383612d9c565b6001600360008473ffffffffffffffffffffffffffffffffffffffff1673ffffffffffffffffffffffffffffffffffffffff16815260200190815260200160002060008282546136029190615128565b92505081905550816002600083815260200190815260200160002060006101000a81548173ffffffffffffffffffffffffffffffffffffffff021916908373ffffffffffffffffffffffffffffffffffffffff160217905550808273ffffffffffffffffffffffffffffffffffffffff16600073ffffffffffffffffffffffffffffffffffffffff167fddf252ad1be2c89b69c2b068fc378daa952ba7f163c4a11628f55a4df523b3ef60405160405180910390a45050565b6000808273ffffffffffffffffffffffffffffffffffffffff163b119050919050565b6040518060e0016040528060008152602001600073ffffffffffffffffffffffffffffffffffffffff16815260200160008152602001606081526020016060815260200160608152602001600081525090565b6000604051905090565b600080fd5b600080fd5b60007fffffffff0000000000000000000000000000000000000000000000000000000082169050919050565b61377a81613745565b811461378557600080fd5b50565b60008135905061379781613771565b92915050565b6000602082840312156137b3576137b261373b565b5b60006137c184828501613788565b91505092915050565b60008115159050919050565b6137df816137ca565b82525050565b60006020820190506137fa60008301846137d6565b92915050565b6000819050919050565b61381381613800565b82525050565b600060208201905061382e600083018461380a565b92915050565b600081519050919050565b600082825260208201905092915050565b60005b8381101561386e578082015181840152602081019050613853565b60008484015250505050565b6000601f19601f8301169050919050565b600061389682613834565b6138a0818561383f565b93506138b0818560208601613850565b6138b98161387a565b840191505092915050565b600060208201905081810360008301526138de818461388b565b905092915050565b6138ef81613800565b81146138fa57600080fd5b50565b60008135905061390c816138e6565b92915050565b6000602082840312156139285761392761373b565b5b6000613936848285016138fd565b91505092915050565b600073ffffffffffffffffffffffffffffffffffffffff82169050919050565b600061396a8261393f565b9050919050565b61397a8161395f565b82525050565b60006020820190506139956000830184613971565b92915050565b6139a48161395f565b81146139af57600080fd5b50565b6000813590506139c18161399b565b92915050565b600080604083850312156139de576139dd61373b565b5b60006139ec858286016139b2565b92505060206139fd858286016138fd565b9150509250929050565b600080600060608486031215613a2057613a1f61373b565b5b6000613a2e868287016139b2565b9350506020613a3f868287016139b2565b9250506040613a50868287016138fd565b9150509250925092565b600081519050919050565b600082825260208201905092915050565b6000819050602082019050919050565b613a8f81613800565b82525050565b613a9e8161395f565b82525050565b600082825260208201905092915050565b6000613ac082613834565b613aca8185613aa4565b9350613ada818560208601613850565b613ae38161387a565b840191505092915050565b600060e083016000830151613b066000860182613a86565b506020830151613b196020860182613a95565b506040830151613b2c6040860182613a86565b5060608301518482036060860152613b448282613ab5565b91505060808301518482036080860152613b5e8282613ab5565b91505060a083015184820360a0860152613b788282613ab5565b91505060c0830151613b8d60c0860182613a86565b508091505092915050565b6000613ba48383613aee565b905092915050565b6000602082019050919050565b6000613bc482613a5a565b613bce8185613a65565b935083602082028501613be085613a76565b8060005b85811015613c1c5784840389528151613bfd8582613b98565b9450613c0883613bac565b925060208a01995050600181019050613be4565b50829750879550505050505092915050565b60006020820190508181036000830152613c488184613bb9565b905092915050565b600060e083016000830151613c686000860182613a86565b506020830151613c7b6020860182613a95565b506040830151613c8e6040860182613a86565b5060608301518482036060860152613ca68282613ab5565b91505060808301518482036080860152613cc08282613ab5565b91505060a083015184820360a0860152613cda8282613ab5565b91505060c0830151613cef60c0860182613a86565b508091505092915050565b60006020820190508181036000830152613d148184613c50565b905092915050565b600060208284031215613d3257613d3161373b565b5b6000613d40848285016139b2565b91505092915050565b600080fd5b600080fd5b7f4e487b7100000000000000000000000000000000000000000000000000000000600052604160045260246000fd5b613d8b8261387a565b810181811067ffffffffffffffff82111715613daa57613da9613d53565b5b80604052505050565b6000613dbd613731565b9050613dc98282613d82565b919050565b600067ffffffffffffffff821115613de957613de8613d53565b5b613df28261387a565b9050602081019050919050565b82818337600083830152505050565b6000613e21613e1c84613dce565b613db3565b905082815260208101848484011115613e3d57613e3c613d4e565b5b613e48848285613dff565b509392505050565b600082601f830112613e6557613e64613d49565b5b8135613e75848260208601613e0e565b91505092915050565b60008060008060808587031215613e9857613e9761373b565b5b600085013567ffffffffffffffff811115613eb657613eb5613740565b5b613ec287828801613e50565b945050602085013567ffffffffffffffff811115613ee357613ee2613740565b5b613eef87828801613e50565b935050604085013567ffffffffffffffff811115613f1057613f0f613740565b5b613f1c87828801613e50565b9250506060613f2d878288016138fd565b91505092959194509250565b613f42816137ca565b8114613f4d57600080fd5b50565b600081359050613f5f81613f39565b92915050565b60008060408385031215613f7c57613f7b61373b565b5b6000613f8a858286016139b2565b9250506020613f9b85828601613f50565b9150509250929050565b60008060408385031215613fbc57613fbb61373b565b5b6000613fca858286016138fd565b9250506020613fdb858286016138fd565b9150509250929050565b600067ffffffffffffffff82111561400057613fff613d53565b5b6140098261387a565b9050602081019050919050565b600061402961402484613fe5565b613db3565b90508281526020810184848401111561404557614044613d4e565b5b614050848285613dff565b509392505050565b600082601f83011261406d5761406c613d49565b5b813561407d848260208601614016565b91505092915050565b600080600080608085870312156140a05761409f61373b565b5b60006140ae878288016139b2565b94505060206140bf878288016139b2565b93505060406140d0878288016138fd565b925050606085013567ffffffffffffffff8111156140f1576140f0613740565b5b6140fd87828801614058565b91505092959194509250565b600080604083850312156141205761411f61373b565b5b600061412e858286016139b2565b925050602061413f858286016139b2565b9150509250929050565b7f4e487b7100000000000000000000000000000000000000000000000000000000600052602260045260246000fd5b6000600282049050600182168061419057607f821691505b6020821081036141a3576141a2614149565b5b50919050565b7f4552433732313a20617070726f76656420717565727920666f72206e6f6e657860008201527f697374656e7420746f6b656e0000000000000000000000000000000000000000602082015250565b6000614205602c8361383f565b9150614210826141a9565b604082019050919050565b60006020820190508181036000830152614234816141f8565b9050919050565b7f4552433732313a20617070726f76616c20746f2063757272656e74206f776e6560008201527f7200000000000000000000000000000000000000000000000000000000000000602082015250565b600061429760218361383f565b91506142a28261423b565b604082019050919050565b600060208201905081810360008301526142c68161428a565b9050919050565b7f4552433732313a20617070726f76652063616c6c6572206973206e6f74206f7760008201527f6e6572206e6f7220617070726f76656420666f7220616c6c0000000000000000602082015250565b600061432960388361383f565b9150614334826142cd565b604082019050919050565b600060208201905081810360008301526143588161431c565b9050919050565b7f4552433732313a207472616e736665722063616c6c6572206973206e6f74206f60008201527f776e6572206e6f7220617070726f766564000000000000000000000000000000602082015250565b60006143bb60318361383f565b91506143c68261435f565b604082019050919050565b600060208201905081810360008301526143ea816143ae565b9050919050565b7f455243373231456e756d657261626c653a206f776e657220696e646578206f7560008201527f74206f6620626f756e6473000000000000000000000000000000000000000000602082015250565b600061444d602b8361383f565b9150614458826143f1565b604082019050919050565b6000602082019050818103600083015261447c81614440565b9050919050565b7f455243373231456e756d657261626c653a20676c6f62616c20696e646578206f60008201527f7574206f6620626f756e64730000000000000000000000000000000000000000602082015250565b60006144df602c8361383f565b91506144ea82614483565b604082019050919050565b6000602082019050818103600083015261450e816144d2565b9050919050565b7f4e487b7100000000000000000000000000000000000000000000000000000000600052603260045260246000fd5b7f4e487b7100000000000000000000000000000000000000000000000000000000600052601160045260246000fd5b600061457e82613800565b915061458983613800565b92508282039050818111156145a1576145a0614544565b5b92915050565b7f4552433732313a206f776e657220717565727920666f72206e6f6e657869737460008201527f656e7420746f6b656e0000000000000000000000000000000000000000000000602082015250565b600061460360298361383f565b915061460e826145a7565b604082019050919050565b60006020820190508181036000830152614632816145f6565b9050919050565b7f4552433732313a2062616c616e636520717565727920666f7220746865207a6560008201527f726f206164647265737300000000000000000000000000000000000000000000602082015250565b6000614695602a8361383f565b91506146a082614639565b604082019050919050565b600060208201905081810360008301526146c481614688565b9050919050565b7f457468657220746f6f206c6f7720666f72206d696e74696e6721000000000000600082015250565b6000614701601a8361383f565b915061470c826146cb565b602082019050919050565b60006020820190508181036000830152614730816146f4565b9050919050565b600081905092915050565b600061474d82613834565b6147578185614737565b9350614767818560208601613850565b80840191505092915050565b600061477f8284614742565b915081905092915050565b7f54686973204e465420697320616c7265616479206d696e746564210000000000600082015250565b60006147c0601b8361383f565b91506147cb8261478a565b602082019050919050565b600060208201905081810360008301526147ef816147b3565b9050919050565b7f53616c6573206e6f7420616c6c6f776564210000000000000000000000000000600082015250565b600061482c60128361383f565b9150614837826147f6565b602082019050919050565b6000602082019050818103600083015261485b8161481f565b9050919050565b600061486d82613800565b915061487883613800565b925082820261488681613800565b9150828204841483151761489d5761489c614544565b5b5092915050565b7f4e487b7100000000000000000000000000000000000000000000000000000000600052601260045260246000fd5b60006148de82613800565b91506148e983613800565b9250826148f9576148f86148a4565b5b828204905092915050565b600061490f82613800565b91507fffffffffffffffffffffffffffffffffffffffffffffffffffffffffffffffff820361494157614940614544565b5b600182019050919050565b60008190508160005260206000209050919050565b60006020601f8301049050919050565b600082821b905092915050565b6000600883026149ae7fffffffffffffffffffffffffffffffffffffffffffffffffffffffffffffffff82614971565b6149b88683614971565b95508019841693508086168417925050509392505050565b6000819050919050565b60006149f56149f06149eb84613800565b6149d0565b613800565b9050919050565b6000819050919050565b614a0f836149da565b614a23614a1b826149fc565b84845461497e565b825550505050565b600090565b614a38614a2b565b614a43818484614a06565b505050565b5b81811015614a6757614a5c600082614a30565b600181019050614a49565b5050565b601f821115614aac57614a7d8161494c565b614a8684614961565b81016020851015614a95578190505b614aa9614aa185614961565b830182614a48565b50505b505050565b600082821c905092915050565b6000614acf60001984600802614ab1565b1980831691505092915050565b6000614ae88383614abe565b9150826002028217905092915050565b614b0182613834565b67ffffffffffffffff811115614b1a57614b19613d53565b5b614b248254614178565b614b2f828285614a6b565b600060209050601f831160018114614b625760008415614b50578287015190505b614b5a8582614adc565b865550614bc2565b601f198416614b708661494c565b60005b82811015614b9857848901518255600182019150602085019450602081019050614b73565b86831015614bb55784890151614bb1601f891682614abe565b8355505b6001600288020188555050505b505050505050565b6000608082019050614bdf600083018761380a565b614bec602083018661380a565b8181036040830152614bfe818561388b565b9050614c0d606083018461380a565b95945050505050565b7f457468657220746f6f206c6f7720666f72207075726368617365210000000000600082015250565b6000614c4c601b8361383f565b9150614c5782614c16565b602082019050919050565b60006020820190508181036000830152614c7b81614c3f565b9050919050565b7f4f7065726174696f6e204e6f7420416c6c6f7765642100000000000000000000600082015250565b6000614cb860168361383f565b9150614cc382614c82565b602082019050919050565b60006020820190508181036000830152614ce781614cab565b9050919050565b60008154614cfb81614178565b614d05818661383f565b94506001821660008114614d205760018114614d3657614d69565b60ff198316865281151560200286019350614d69565b614d3f8561494c565b60005b83811015614d6157815481890152600182019150602081019050614d42565b808801955050505b50505092915050565b6000608082019050614d87600083018761380a565b614d94602083018661380a565b8181036040830152614da68185614cee565b9050614db5606083018461380a565b95945050505050565b7f457468657220746f6f206c6f7721000000000000000000000000000000000000600082015250565b6000614df4600e8361383f565b9150614dff82614dbe565b602082019050919050565b60006020820190508181036000830152614e2381614de7565b9050919050565b7f4552433732314d657461646174613a2055524920717565727920666f72206e6f60008201527f6e6578697374656e7420746f6b656e0000000000000000000000000000000000602082015250565b6000614e86602f8361383f565b9150614e9182614e2a565b604082019050919050565b60006020820190508181036000830152614eb581614e79565b9050919050565b6000614ec88285614742565b9150614ed48284614742565b91508190509392505050565b7f4f776e61626c653a206e6577206f776e657220697320746865207a65726f206160008201527f6464726573730000000000000000000000000000000000000000000000000000602082015250565b6000614f3c60268361383f565b9150614f4782614ee0565b604082019050919050565b60006020820190508181036000830152614f6b81614f2f565b9050919050565b7f4552433732313a206f70657261746f7220717565727920666f72206e6f6e657860008201527f697374656e7420746f6b656e0000000000000000000000000000000000000000602082015250565b6000614fce602c8361383f565b9150614fd982614f72565b604082019050919050565b60006020820190508181036000830152614ffd81614fc1565b9050919050565b7f4552433732313a207472616e73666572206f6620746f6b656e2074686174206960008201527f73206e6f74206f776e0000000000000000000000000000000000000000000000602082015250565b600061506060298361383f565b915061506b82615004565b604082019050919050565b6000602082019050818103600083015261508f81615053565b9050919050565b7f4552433732313a207472616e7366657220746f20746865207a65726f2061646460008201527f7265737300000000000000000000000000000000000000000000000000000000602082015250565b60006150f260248361383f565b91506150fd82615096565b604082019050919050565b60006020820190508181036000830152615121816150e5565b9050919050565b600061513382613800565b915061513e83613800565b925082820190508082111561515657615155614544565b5b92915050565b7f4f776e61626c653a2063616c6c6572206973206e6f7420746865206f776e6572600082015250565b600061519260208361383f565b915061519d8261515c565b602082019050919050565b600060208201905081810360008301526151c181615185565b9050919050565b600081905092915050565b50565b60006151e36000836151c8565b91506151ee826151d3565b600082019050919050565b6000615204826151d6565b9150819050919050565b7f4552433732313a20617070726f766520746f2063616c6c657200000000000000600082015250565b600061524460198361383f565b915061524f8261520e565b602082019050919050565b6000602082019050818103600083015261527381615237565b9050919050565b7f4552433732313a207472616e7366657220746f206e6f6e20455243373231526560008201527f63656976657220696d706c656d656e7465720000000000000000000000000000602082015250565b60006152d660328361383f565b91506152e18261527a565b604082019050919050565b60006020820190508181036000830152615305816152c9565b9050919050565b600081519050919050565b600082825260208201905092915050565b60006153338261530c565b61533d8185615317565b935061534d818560208601613850565b6153568161387a565b840191505092915050565b60006080820190506153766000830187613971565b6153836020830186613971565b615390604083018561380a565b81810360608301526153a28184615328565b905095945050505050565b6000815190506153bc81613771565b92915050565b6000602082840312156153d8576153d761373b565b5b60006153e6848285016153ad565b91505092915050565b7f4e487b7100000000000000000000000000000000000000000000000000000000600052603160045260246000fd5b7f4552433732313a206d696e7420746f20746865207a65726f2061646472657373600082015250565b600061545460208361383f565b915061545f8261541e565b602082019050919050565b6000602082019050818103600083015261548381615447565b9050919050565b7f4552433732313a20746f6b656e20616c7265616479206d696e74656400000000600082015250565b60006154c0601c8361383f565b91506154cb8261548a565b602082019050919050565b600060208201905081810360008301526154ef816154b3565b905091905056fea2646970667358221220aabb040a8753073b17ba08fdb96007f4d0723901617ef1a5e2a1e9c7b2273d9f64736f6c63430008130033",
  "immutableReferences": {},
  "source": "// SPDX-License-Identifier: MIT\r\npragma solidity >=0.7.0 <0.9.0;\r\n\r\nimport \"./ERC721.sol\";\r\nimport \"./ERC721Enumerable.sol\";\r\nimport \"@openzeppelin/contracts/access/Ownable.sol\";\r\n\r\ncontract TimelessNFT is ERC721Enumerable, Ownable {\r\n    using Strings for uint256;\r\n    mapping(string => uint8) existingURIs;\r\n    mapping(uint256 => address) public holderOf;\r\n\r\n    address public artist;\r\n    uint256 public royalityFee;\r\n    uint256 public supply = 0;\r\n    uint256 public totalTx = 0;\r\n    uint256 public cost = 0.01 ether;\r\n\r\n    event Sale(\r\n        uint256 id,\r\n        address indexed owner,\r\n        uint256 cost,\r\n        string metadataURI,\r\n        uint256 timestamp\r\n    );\r\n\r\n    struct TransactionStruct {\r\n        uint256 id;\r\n        address owner;\r\n        uint256 cost;\r\n        string title;\r\n        string description;\r\n        string metadataURI;\r\n        uint256 timestamp;\r\n    }\r\n\r\n    TransactionStruct[] transactions;\r\n    TransactionStruct[] minted;\r\n\r\n    constructor(\r\n        string memory _name,\r\n        string memory _symbol,\r\n        uint256 _royalityFee,\r\n        address _artist\r\n    ) ERC721(_name, _symbol) {\r\n        royalityFee = _royalityFee;\r\n        artist = _artist;\r\n    }\r\n\r\n    function payToMint(\r\n        string memory title,\r\n        string memory description,\r\n        string memory metadataURI,\r\n        uint256 salesPrice\r\n    ) external payable {\r\n        require(msg.value >= cost, \"Ether too low for minting!\");\r\n        require(existingURIs[metadataURI] == 0, \"This NFT is already minted!\");\r\n        require(msg.sender != owner(), \"Sales not allowed!\");\r\n        \r\n\r\n        uint256 royality = (msg.value * royalityFee) / 100;\r\n        payTo(artist, royality);\r\n        payTo(owner(), (msg.value - royality));\r\n\r\n        supply++;\r\n\r\n        minted.push(\r\n            TransactionStruct(\r\n                supply,\r\n                msg.sender,\r\n                salesPrice,\r\n                title,\r\n                description,\r\n                metadataURI,\r\n                block.timestamp\r\n            )\r\n        );\r\n\r\n        emit Sale(\r\n            supply,\r\n            msg.sender,\r\n            msg.value,\r\n            metadataURI,\r\n            block.timestamp\r\n        );\r\n\r\n        _safeMint(msg.sender, supply);\r\n        existingURIs[metadataURI] = 1;\r\n        holderOf[supply] = msg.sender;\r\n    }\r\n\r\n    function payToBuy(uint256 id) external payable {\r\n        require(msg.value >= minted[id - 1].cost, \"Ether too low for purchase!\");\r\n        require(msg.sender != minted[id - 1].owner, \"Operation Not Allowed!\");\r\n\r\n        uint256 royality = (msg.value * royalityFee) / 100;\r\n        payTo(artist, royality);\r\n        payTo(minted[id - 1].owner, (msg.value - royality));\r\n\r\n        totalTx++;\r\n\r\n        transactions.push(\r\n            TransactionStruct(\r\n                totalTx,\r\n                msg.sender,\r\n                msg.value,\r\n                minted[id - 1].title,\r\n                minted[id - 1].description,\r\n                minted[id - 1].metadataURI,\r\n                block.timestamp\r\n            )\r\n        );\r\n\r\n        emit Sale(\r\n            totalTx,\r\n            msg.sender,\r\n            msg.value,\r\n            minted[id - 1].metadataURI,\r\n            block.timestamp\r\n        );\r\n\r\n        minted[id - 1].owner = msg.sender;\r\n    }\r\n\r\n    function changePrice(uint256 id, uint256 newPrice) external returns (bool) {\r\n        require(newPrice > 0 ether, \"Ether too low!\");\r\n        require(msg.sender == minted[id - 1].owner, \"Operation Not Allowed!\");\r\n\r\n        minted[id - 1].cost = newPrice;\r\n        return true;\r\n    }\r\n\r\n    function payTo(address to, uint256 amount) internal {\r\n        (bool success, ) = payable(to).call{value: amount}(\"\");\r\n        require(success);\r\n    }\r\n\r\n    function getAllNFTs() external view returns (TransactionStruct[] memory) {\r\n        return minted;\r\n    }\r\n\r\n    function getNFT(uint256 id) external view returns (TransactionStruct memory) {\r\n        return minted[id - 1];\r\n    }\r\n\r\n    function getAllTransactions() external view returns (TransactionStruct[] memory) {\r\n        return transactions;\r\n    }\r\n}",
  "sourcePath": "C:\\Users\\Vaibhav Bansal\\Documents\\NewNFT\\MyNFT\\src\\contracts\\TimelessNFT.sol",
  "compiler": {
    "name": "solc",
    "version": "0.8.19+commit.7dd6d404.Emscripten.clang"
  },
  "schemaVersion": "3.4.13",
  "updatedAt": "2023-05-05T10:35:13.206Z",
  "networkType": "ethereum",
  "devdoc": {
    "events": {
      "Approval(address,address,uint256)": {
        "details": "Emitted when `owner` enables `approved` to manage the `tokenId` token."
      },
      "ApprovalForAll(address,address,bool)": {
        "details": "Emitted when `owner` enables or disables (`approved`) `operator` to manage all of its assets."
      },
      "Transfer(address,address,uint256)": {
        "details": "Emitted when `tokenId` token is transferred from `from` to `to`."
      }
    },
    "kind": "dev",
    "methods": {
      "approve(address,uint256)": {
        "details": "See {IERC721-approve}."
      },
      "balanceOf(address)": {
        "details": "See {IERC721-balanceOf}."
      },
      "getApproved(uint256)": {
        "details": "See {IERC721-getApproved}."
      },
      "isApprovedForAll(address,address)": {
        "details": "See {IERC721-isApprovedForAll}."
      },
      "name()": {
        "details": "See {IERC721Metadata-name}."
      },
      "owner()": {
        "details": "Returns the address of the current owner."
      },
      "ownerOf(uint256)": {
        "details": "See {IERC721-ownerOf}."
      },
      "renounceOwnership()": {
        "details": "Leaves the contract without owner. It will not be possible to call `onlyOwner` functions anymore. Can only be called by the current owner. NOTE: Renouncing ownership will leave the contract without an owner, thereby removing any functionality that is only available to the owner."
      },
      "safeTransferFrom(address,address,uint256)": {
        "details": "See {IERC721-safeTransferFrom}."
      },
      "safeTransferFrom(address,address,uint256,bytes)": {
        "details": "See {IERC721-safeTransferFrom}."
      },
      "setApprovalForAll(address,bool)": {
        "details": "See {IERC721-setApprovalForAll}."
      },
      "supportsInterface(bytes4)": {
        "details": "See {IERC165-supportsInterface}."
      },
      "symbol()": {
        "details": "See {IERC721Metadata-symbol}."
      },
      "tokenByIndex(uint256)": {
        "details": "See {IERC721Enumerable-tokenByIndex}."
      },
      "tokenOfOwnerByIndex(address,uint256)": {
        "details": "See {IERC721Enumerable-tokenOfOwnerByIndex}."
      },
      "tokenURI(uint256)": {
        "details": "See {IERC721Metadata-tokenURI}."
      },
      "totalSupply()": {
        "details": "See {IERC721Enumerable-totalSupply}."
      },
      "transferFrom(address,address,uint256)": {
        "details": "See {IERC721-transferFrom}."
      },
      "transferOwnership(address)": {
        "details": "Transfers ownership of the contract to a new account (`newOwner`). Can only be called by the current owner."
      }
    },
    "version": 1
  },
  "userdoc": {
    "kind": "user",
    "methods": {},
    "version": 1
  }
}